{
  "transactions": [
    {
      "hash": "0x718173347d9fb54050ebfd8d6962de563121c22c142ac5d1b970dd36add13d0a",
      "transactionType": "CALL",
      "contractName": null,
      "contractAddress": "0xf6d3db85e6221c03c507e32533228b014936fa20",
      "function": "setVoltToken(address)",
      "arguments": [
        "0x13cc8aB2F3411C02D7887611cA9A706dA36d0974"
      ],
      "transaction": {
        "from": "0x2c1af32165be28ccf4e94009522d08e6ccfcee2b",
        "to": "0xf6d3db85e6221c03c507e32533228b014936fa20",
        "gas": "0x11c66",
        "value": "0x0",
        "input": "0xaa4874ce00000000000000000000000013cc8ab2f3411c02d7887611ca9a706da36d0974",
        "nonce": "0x46",
        "chainId": "0x14a34"
      },
      "additionalContracts": [],
      "isFixedGasLimit": false
    }
  ],
  "receipts": [
    {
      "status": "0x1",
      "cumulativeGasUsed": "0x8edf07",
      "logs": [
        {
          "address": "0xf6d3db85e6221c03c507e32533228b014936fa20",
          "topics": [
            "0x9f0f9fd4e7dcd32e298f6f99a4a2a55e715c90f599074bbcbcdfec0d5cd40dc2",
            "0x0000000000000000000000000000000000000000000000000000000000000000",
            "0x00000000000000000000000013cc8ab2f3411c02d7887611ca9a706da36d0974"
          ],
          "data": "0x",
          "blockHash": "0x0000000000000000000000000000000000000000000000000000000000000000",
          "blockNumber": "0x264c7be",
          "blockTimestamp": "0x69dcee5c",
          "transactionHash": "0x718173347d9fb54050ebfd8d6962de563121c22c142ac5d1b970dd36add13d0a",
          "transactionIndex": "0x18",
          "logIndex": "0x1c0",
          "removed": false
        }
      ],
      "logsBloom": "0x00000000000000000000000000000000000000000000000000000000000000000000000000000000000000000000000000000000000000004000000000000000000000000000000000000000000000000000000000000410000000000000040000000000020000000000000000000800000000000000000000000000000000000000000000000000000000000000000000400000000000000000000000000000000000000000000000000000000000000000000000000080000000000000000000000000000000000000000000000000410000000000400000000000000020000000000000000000000000000000000000000000000000000000000000000000",
      "type": "0x2",
      "transactionHash": "0x718173347d9fb54050ebfd8d6962de563121c22c142ac5d1b970dd36add13d0a",
      "transactionIndex": "0x18",
      "blockHash": "0x0000000000000000000000000000000000000000000000000000000000000000",
      "blockNumber": "0x264c7be",
      "gasUsed": "0xcde7",
      "effectiveGasPrice": "0x5b8d80",
      "blobGasUsed": "0x39d0",
      "from": "0x2c1af32165be28ccf4e94009522d08e6ccfcee2b",
      "to": "0xf6d3db85e6221c03c507e32533228b014936fa20",
      "contractAddress": null,
      "daFootprintGasScalar": "0x94",
      "l1BaseFeeScalar": "0x44d",
      "l1BlobBaseFee": "0xc85db",
      "l1BlobBaseFeeScalar": "0xa118b",
      "l1Fee": "0x4b8263b",
      "l1GasPrice": "0xd8bfee",
      "l1GasUsed": "0x640"
    }
  ],
  "libraries": [],
  "pending": [],
  "returns": {},
  "timestamp": 1776086619399,
  "chain": 84532,
  "commit": "e92c71c"
}