{
  "transactions": [
    {
      "hash": "0xd8dff8d66eda40d5cf38741477052a39e77022a4f0f55c9e55029beb57176791",
      "transactionType": "CALL",
      "contractName": null,
      "contractAddress": "0xe1059d651c3ccc1321267af955c083d6bbbb0b32",
      "function": "setBettingOpen(bool)",
      "arguments": [
        "true"
      ],
      "transaction": {
        "from": "0x2c1af32165be28ccf4e94009522d08e6ccfcee2b",
        "to": "0xe1059d651c3ccc1321267af955c083d6bbbb0b32",
        "gas": "0xb984",
        "value": "0x0",
        "input": "0x4f71abdc0000000000000000000000000000000000000000000000000000000000000001",
        "nonce": "0x16",
        "chainId": "0x14a34"
      },
      "additionalContracts": [],
      "isFixedGasLimit": false
    }
  ],
  "receipts": [
    {
      "status": "0x1",
      "cumulativeGasUsed": "0x13340",
      "logs": [
        {
          "address": "0xe1059d651c3ccc1321267af955c083d6bbbb0b32",
          "topics": [
            "0x2936bcc04d58cf46d8790e99f87ada4b9927a50ee3328816dd6f8cb650add5d0"
          ],
          "data": "0x0000000000000000000000000000000000000000000000000000000000000001",
          "blockHash": "0x0000000000000000000000000000000000000000000000000000000000000000",
          "blockNumber": "0x2644d99",
          "blockTimestamp": "0x69dbfa12",
          "transactionHash": "0xd8dff8d66eda40d5cf38741477052a39e77022a4f0f55c9e55029beb57176791",
          "transactionIndex": "0x1",
          "logIndex": "0x0",
          "removed": false
        }
      ],
      "logsBloom": "0x00000000000000000000000000000000000000000000000000000000000000000000000000000000000000004000000000000000000000000000000000000000000000000000000200000000000000000000000000002000000000000000000000000000000000000000000000000000000000000000000000000000000008000000000000000000000000000000000000001000000000000000000000000000000000000000000000000000000000000000000000000000000000000000000000000000000000000000000000000010000000000000000000000000000000000000000000000000000000000000000000000000000000000000000000000000",
      "type": "0x2",
      "transactionHash": "0xd8dff8d66eda40d5cf38741477052a39e77022a4f0f55c9e55029beb57176791",
      "transactionIndex": "0x1",
      "blockHash": "0x0000000000000000000000000000000000000000000000000000000000000000",
      "blockNumber": "0x2644d99",
      "gasUsed": "0x7eda",
      "effectiveGasPrice": "0x5b8d80",
      "blobGasUsed": "0x39d0",
      "from": "0x2c1af32165be28ccf4e94009522d08e6ccfcee2b",
      "to": "0xe1059d651c3ccc1321267af955c083d6bbbb0b32",
      "contractAddress": null,
      "daFootprintGasScalar": "0x94",
      "l1BaseFeeScalar": "0x44d",
      "l1BlobBaseFee": "0x3767",
      "l1BlobBaseFeeScalar": "0xa118b",
      "l1Fee": "0x148d41",
      "l1GasPrice": "0x38f67",
      "l1GasUsed": "0x640"
    }
  ],
  "libraries": [],
  "pending": [],
  "returns": {},
  "timestamp": 1776024079669,
  "chain": 84532,
  "commit": "4aac2a7"
}