{
  "transactions": [
    {
      "hash": "0x5549190ad242a3d9f6fc72610f42e9c530e35f3bd8121bcb8447a5d3c62acd92",
      "transactionType": "CALL",
      "contractName": null,
      "contractAddress": "0xf6d3db85e6221c03c507e32533228b014936fa20",
      "function": "configureRandomness(address,bytes32,uint256,uint16,uint32)",
      "arguments": [
        "0x5C210eF41CD1a72de73bF76eC39637bB0d3d7BEE",
        "0x9e1344a1247c8a1785d0a4681a27152bffdb43666ae5bf7d14d24a5efd44bf71",
        "28894491140412594175012611350080176872718685696045364957455912555234068106716",
        "3",
        "250000"
      ],
      "transaction": {
        "from": "0x2c1af32165be28ccf4e94009522d08e6ccfcee2b",
        "to": "0xf6d3db85e6221c03c507e32533228b014936fa20",
        "gas": "0x12238",
        "value": "0x0",
        "input": "0xd10590860000000000000000000000005c210ef41cd1a72de73bf76ec39637bb0d3d7bee9e1344a1247c8a1785d0a4681a27152bffdb43666ae5bf7d14d24a5efd44bf713fe1b3d2970b49b4c9a530f3f4cf63a24887f63cefbe27229b72403bf7698ddc0000000000000000000000000000000000000000000000000000000000000003000000000000000000000000000000000000000000000000000000000003d090",
        "nonce": "0x43",
        "chainId": "0x14a34"
      },
      "additionalContracts": [],
      "isFixedGasLimit": false
    }
  ],
  "receipts": [
    {
      "status": "0x1",
      "cumulativeGasUsed": "0x137ad1",
      "logs": [],
      "logsBloom": "0x00000000000000000000000000000000000000000000000000000000000000000000000000000000000000000000000000000000000000000000000000000000000000000000000000000000000000000000000000000000000000000000000000000000000000000000000000000000000000000000000000000000000000000000000000000000000000000000000000000000000000000000000000000000000000000000000000000000000000000000000000000000000000000000000000000000000000000000000000000000000000000000000000000000000000000000000000000000000000000000000000000000000000000000000000000000",
      "type": "0x2",
      "transactionHash": "0x5549190ad242a3d9f6fc72610f42e9c530e35f3bd8121bcb8447a5d3c62acd92",
      "transactionIndex": "0x4",
      "blockHash": "0x0000000000000000000000000000000000000000000000000000000000000000",
      "blockNumber": "0x264c650",
      "gasUsed": "0xc671",
      "effectiveGasPrice": "0x5b8d80",
      "blobGasUsed": "0x5624",
      "from": "0x2c1af32165be28ccf4e94009522d08e6ccfcee2b",
      "to": "0xf6d3db85e6221c03c507e32533228b014936fa20",
      "contractAddress": null,
      "daFootprintGasScalar": "0x94",
      "l1BaseFeeScalar": "0x44d",
      "l1BlobBaseFee": "0x7643d",
      "l1BlobBaseFeeScalar": "0xa118b",
      "l1Fee": "0x2f7f5ed",
      "l1GasPrice": "0x9a88da",
      "l1GasUsed": "0x95c"
    }
  ],
  "libraries": [],
  "pending": [],
  "returns": {},
  "timestamp": 1776085886103,
  "chain": 84532,
  "commit": "e92c71c"
}