{
  "transactions": [
    {
      "hash": "0x55fd17453c606b131b7cef3423e7ec8ca39acc0be23893a39dc154b25f93229a",
      "transactionType": "CALL",
      "contractName": null,
      "contractAddress": "0xe1059d651c3ccc1321267af955c083d6bbbb0b32",
      "function": "configureRandomness(address,bytes32,uint256,uint16,uint32)",
      "arguments": [
        "0x5C210eF41CD1a72de73bF76eC39637bB0d3d7BEE",
        "0x9e1344a1247c8a1785d0a4681a27152bffdb43666ae5bf7d14d24a5efd44bf71",
        "28894491140412594175012611350080176872718685696045364957455912555234068106716",
        "3",
        "250000"
      ],
      "transaction": {
        "from": "0x2c1af32165be28ccf4e94009522d08e6ccfcee2b",
        "to": "0xe1059d651c3ccc1321267af955c083d6bbbb0b32",
        "gas": "0xea80",
        "value": "0x0",
        "input": "0xd10590860000000000000000000000005c210ef41cd1a72de73bf76ec39637bb0d3d7bee9e1344a1247c8a1785d0a4681a27152bffdb43666ae5bf7d14d24a5efd44bf713fe1b3d2970b49b4c9a530f3f4cf63a24887f63cefbe27229b72403bf7698ddc0000000000000000000000000000000000000000000000000000000000000003000000000000000000000000000000000000000000000000000000000003d090",
        "nonce": "0x11",
        "chainId": "0x14a34"
      },
      "additionalContracts": [],
      "isFixedGasLimit": false
    }
  ],
  "receipts": [
    {
      "status": "0x1",
      "cumulativeGasUsed": "0x25f781",
      "logs": [],
      "logsBloom": "0x00000000000000000000000000000000000000000000000000000000000000000000000000000000000000000000000000000000000000000000000000000000000000000000000000000000000000000000000000000000000000000000000000000000000000000000000000000000000000000000000000000000000000000000000000000000000000000000000000000000000000000000000000000000000000000000000000000000000000000000000000000000000000000000000000000000000000000000000000000000000000000000000000000000000000000000000000000000000000000000000000000000000000000000000000000000",
      "type": "0x2",
      "transactionHash": "0x55fd17453c606b131b7cef3423e7ec8ca39acc0be23893a39dc154b25f93229a",
      "transactionIndex": "0x3",
      "blockHash": "0x0000000000000000000000000000000000000000000000000000000000000000",
      "blockNumber": "0x2644b07",
      "gasUsed": "0xa9c7",
      "effectiveGasPrice": "0x5b8d80",
      "blobGasUsed": "0x5590",
      "from": "0x2c1af32165be28ccf4e94009522d08e6ccfcee2b",
      "to": "0xe1059d651c3ccc1321267af955c083d6bbbb0b32",
      "contractAddress": null,
      "daFootprintGasScalar": "0x94",
      "l1BaseFeeScalar": "0x44d",
      "l1BlobBaseFee": "0x91ec",
      "l1BlobBaseFeeScalar": "0xa118b",
      "l1Fee": "0x2fbc818f",
      "l1GasPrice": "0x8f404",
      "l1GasUsed": "0x94f"
    }
  ],
  "libraries": [],
  "pending": [],
  "returns": {},
  "timestamp": 1776022763891,
  "chain": 84532,
  "commit": "4aac2a7"
}