{
  "transactions": [
    {
      "hash": "0x0a75b81520650ec971b9392c2a3de6c518b3ca1990592c10fed59065b9d64554",
      "transactionType": "CALL",
      "contractName": null,
      "contractAddress": "0xe1059d651c3ccc1321267af955c083d6bbbb0b32",
      "function": "upgradeTo(address)",
      "arguments": [
        "0x6808daD7ab00EfE767527a0235aE56b53f6C3199"
      ],
      "transaction": {
        "from": "0x2c1af32165be28ccf4e94009522d08e6ccfcee2b",
        "to": "0xe1059d651c3ccc1321267af955c083d6bbbb0b32",
        "gas": "0xd1b3",
        "value": "0x0",
        "input": "0x3659cfe60000000000000000000000006808dad7ab00efe767527a0235ae56b53f6c3199",
        "nonce": "0x18",
        "chainId": "0x14a34"
      },
      "additionalContracts": [],
      "isFixedGasLimit": false
    }
  ],
  "receipts": [
    {
      "status": "0x1",
      "cumulativeGasUsed": "0x116415",
      "logs": [
        {
          "address": "0xe1059d651c3ccc1321267af955c083d6bbbb0b32",
          "topics": [
            "0xbc7cd75a20ee27fd9adebab32041f755214dbc6bffa90cc0225b39da2e5c2d3b",
            "0x0000000000000000000000006808dad7ab00efe767527a0235ae56b53f6c3199"
          ],
          "data": "0x",
          "blockHash": "0x0000000000000000000000000000000000000000000000000000000000000000",
          "blockNumber": "0x2644e4b",
          "blockTimestamp": "0x69dbfb76",
          "transactionHash": "0x0a75b81520650ec971b9392c2a3de6c518b3ca1990592c10fed59065b9d64554",
          "transactionIndex": "0x5",
          "logIndex": "0x41",
          "removed": false
        }
      ],
      "logsBloom": "0x00000000000000000000000000000000400000000000000000000000000000000000000000000000000000004000000000000000000000000000000000000800000000800000000000000000000002000000000000000000000000000000000000000000000000000000000000000000000000000000000000000000000008000000080000000000000000000000000000001000000000000000000000000000000000000000000000000000000000000000000000000000000000000000000000000020000000000000000000000000000000000000000000000000000000000000000000000000000000000000000000000000000000000000000000000000",
      "type": "0x2",
      "transactionHash": "0x0a75b81520650ec971b9392c2a3de6c518b3ca1990592c10fed59065b9d64554",
      "transactionIndex": "0x5",
      "blockHash": "0x0000000000000000000000000000000000000000000000000000000000000000",
      "blockNumber": "0x2644e4b",
      "gasUsed": "0x8f63",
      "effectiveGasPrice": "0x5b8d80",
      "blobGasUsed": "0x39d0",
      "from": "0x2c1af32165be28ccf4e94009522d08e6ccfcee2b",
      "to": "0xe1059d651c3ccc1321267af955c083d6bbbb0b32",
      "contractAddress": null,
      "daFootprintGasScalar": "0x94",
      "l1BaseFeeScalar": "0x44d",
      "l1BlobBaseFee": "0x2b49",
      "l1BlobBaseFeeScalar": "0xa118b",
      "l1Fee": "0x1027a9",
      "l1GasPrice": "0x2d652",
      "l1GasUsed": "0x640"
    }
  ],
  "libraries": [],
  "pending": [],
  "returns": {},
  "timestamp": 1776024436090,
  "chain": 84532,
  "commit": "4aac2a7"
}